{
  "_format": "hh-sol-artifact-1",
  "contractName": "BMDX",
  "sourceName": "contracts/BMDX.sol",
  "abi": [
    {
      "inputs": [],
      "stateMutability": "nonpayable",
      "type": "constructor"
    },
    {
      "anonymous": false,
      "inputs": [
        {
          "indexed": true,
          "internalType": "address",
          "name": "owner",
          "type": "address"
        },
        {
          "indexed": true,
          "internalType": "address",
          "name": "spender",
          "type": "address"
        },
        {
          "indexed": false,
          "internalType": "uint256",
          "name": "value",
          "type": "uint256"
        }
      ],
      "name": "Approval",
      "type": "event"
    },
    {
      "anonymous": false,
      "inputs": [
        {
          "indexed": true,
          "internalType": "address",
          "name": "previousOwner",
          "type": "address"
        },
        {
          "indexed": true,
          "internalType": "address",
          "name": "newOwner",
          "type": "address"
        }
      ],
      "name": "OwnershipTransferred",
      "type": "event"
    },
    {
      "anonymous": false,
      "inputs": [
        {
          "indexed": true,
          "internalType": "address",
          "name": "from",
          "type": "address"
        },
        {
          "indexed": true,
          "internalType": "address",
          "name": "to",
          "type": "address"
        },
        {
          "indexed": false,
          "internalType": "uint256",
          "name": "value",
          "type": "uint256"
        }
      ],
      "name": "Transfer",
      "type": "event"
    },
    {
      "inputs": [
        {
          "internalType": "address",
          "name": "owner",
          "type": "address"
        },
        {
          "internalType": "address",
          "name": "spender",
          "type": "address"
        }
      ],
      "name": "allowance",
      "outputs": [
        {
          "internalType": "uint256",
          "name": "",
          "type": "uint256"
        }
      ],
      "stateMutability": "view",
      "type": "function"
    },
    {
      "inputs": [
        {
          "internalType": "address",
          "name": "spender",
          "type": "address"
        },
        {
          "internalType": "uint256",
          "name": "amount",
          "type": "uint256"
        }
      ],
      "name": "approve",
      "outputs": [
        {
          "internalType": "bool",
          "name": "",
          "type": "bool"
        }
      ],
      "stateMutability": "nonpayable",
      "type": "function"
    },
    {
      "inputs": [
        {
          "internalType": "address",
          "name": "account",
          "type": "address"
        }
      ],
      "name": "balanceOf",
      "outputs": [
        {
          "internalType": "uint256",
          "name": "",
          "type": "uint256"
        }
      ],
      "stateMutability": "view",
      "type": "function"
    },
    {
      "inputs": [
        {
          "internalType": "address",
          "name": "from",
          "type": "address"
        },
        {
          "internalType": "uint256",
          "name": "amount",
          "type": "uint256"
        }
      ],
      "name": "burn",
      "outputs": [],
      "stateMutability": "nonpayable",
      "type": "function"
    },
    {
      "inputs": [],
      "name": "decimals",
      "outputs": [
        {
          "internalType": "uint8",
          "name": "",
          "type": "uint8"
        }
      ],
      "stateMutability": "view",
      "type": "function"
    },
    {
      "inputs": [
        {
          "internalType": "address",
          "name": "spender",
          "type": "address"
        },
        {
          "internalType": "uint256",
          "name": "subtractedValue",
          "type": "uint256"
        }
      ],
      "name": "decreaseAllowance",
      "outputs": [
        {
          "internalType": "bool",
          "name": "",
          "type": "bool"
        }
      ],
      "stateMutability": "nonpayable",
      "type": "function"
    },
    {
      "inputs": [
        {
          "internalType": "address",
          "name": "spender",
          "type": "address"
        },
        {
          "internalType": "uint256",
          "name": "addedValue",
          "type": "uint256"
        }
      ],
      "name": "increaseAllowance",
      "outputs": [
        {
          "internalType": "bool",
          "name": "",
          "type": "bool"
        }
      ],
      "stateMutability": "nonpayable",
      "type": "function"
    },
    {
      "inputs": [],
      "name": "lastDailyHash",
      "outputs": [
        {
          "internalType": "string",
          "name": "",
          "type": "string"
        }
      ],
      "stateMutability": "view",
      "type": "function"
    },
    {
      "inputs": [
        {
          "internalType": "address",
          "name": "to",
          "type": "address"
        },
        {
          "internalType": "uint256",
          "name": "amount",
          "type": "uint256"
        }
      ],
      "name": "mint",
      "outputs": [],
      "stateMutability": "nonpayable",
      "type": "function"
    },
    {
      "inputs": [],
      "name": "name",
      "outputs": [
        {
          "internalType": "string",
          "name": "",
          "type": "string"
        }
      ],
      "stateMutability": "view",
      "type": "function"
    },
    {
      "inputs": [],
      "name": "owner",
      "outputs": [
        {
          "internalType": "address",
          "name": "",
          "type": "address"
        }
      ],
      "stateMutability": "view",
      "type": "function"
    },
    {
      "inputs": [],
      "name": "renounceOwnership",
      "outputs": [],
      "stateMutability": "nonpayable",
      "type": "function"
    },
    {
      "inputs": [
        {
          "internalType": "string",
          "name": "hash",
          "type": "string"
        }
      ],
      "name": "setDailyHash",
      "outputs": [],
      "stateMutability": "nonpayable",
      "type": "function"
    },
    {
      "inputs": [],
      "name": "symbol",
      "outputs": [
        {
          "internalType": "string",
          "name": "",
          "type": "string"
        }
      ],
      "stateMutability": "view",
      "type": "function"
    },
    {
      "inputs": [],
      "name": "totalSupply",
      "outputs": [
        {
          "internalType": "uint256",
          "name": "",
          "type": "uint256"
        }
      ],
      "stateMutability": "view",
      "type": "function"
    },
    {
      "inputs": [
        {
          "internalType": "address",
          "name": "to",
          "type": "address"
        },
        {
          "internalType": "uint256",
          "name": "amount",
          "type": "uint256"
        }
      ],
      "name": "transfer",
      "outputs": [
        {
          "internalType": "bool",
          "name": "",
          "type": "bool"
        }
      ],
      "stateMutability": "nonpayable",
      "type": "function"
    },
    {
      "inputs": [
        {
          "internalType": "address",
          "name": "from",
          "type": "address"
        },
        {
          "internalType": "address",
          "name": "to",
          "type": "address"
        },
        {
          "internalType": "uint256",
          "name": "amount",
          "type": "uint256"
        }
      ],
      "name": "transferFrom",
      "outputs": [
        {
          "internalType": "bool",
          "name": "",
          "type": "bool"
        }
      ],
      "stateMutability": "nonpayable",
      "type": "function"
    },
    {
      "inputs": [
        {
          "internalType": "address",
          "name": "newOwner",
          "type": "address"
        }
      ],
      "name": "transferOwnership",
      "outputs": [],
      "stateMutability": "nonpayable",
      "type": "function"
    }
  ],
  "bytecode": "0x60806040523480156200001157600080fd5b506040518060400160405280601681526020017f4265726d756461204469676974616c20446f6c6c617200000000000000000000815250604051806040016040528060048152602001630849a88b60e31b8152508160039081620000769190620001a3565b506004620000858282620001a3565b505050620000a26200009c620000a860201b60201c565b620000ac565b6200026f565b3390565b600580546001600160a01b038381166001600160a01b0319831681179093556040519116919082907f8be0079c531659141344cd1fd0a4f28419497f9722a3daafe3b4186f6b6457e090600090a35050565b634e487b7160e01b600052604160045260246000fd5b600181811c908216806200012957607f821691505b6020821081036200014a57634e487b7160e01b600052602260045260246000fd5b50919050565b601f8211156200019e57600081815260208120601f850160051c81016020861015620001795750805b601f850160051c820191505b818110156200019a5782815560010162000185565b5050505b505050565b81516001600160401b03811115620001bf57620001bf620000fe565b620001d781620001d0845462000114565b8462000150565b602080601f8311600181146200020f5760008415620001f65750858301515b600019600386901b1c1916600185901b1785556200019a565b600085815260208120601f198616915b8281101562000240578886015182559484019460019091019084016200021f565b50858210156200025f5787850151600019600388901b60f8161c191681555b5050505050600190811b01905550565b610eff806200027f6000396000f3fe608060405234801561001057600080fd5b50600436106101165760003560e01c8063715018a6116100a2578063a457c2d711610071578063a457c2d714610227578063a9059cbb1461023a578063c10433a41461024d578063dd62ed3e14610260578063f2fde38b1461027357600080fd5b8063715018a6146101e95780638da5cb5b146101f157806395d89b411461020c5780639dc29fac1461021457600080fd5b806323b872dd116100e957806323b872dd14610176578063313ce56714610189578063395093511461019857806340c10f19146101ab57806370a08231146101c057600080fd5b806306fdde031461011b578063095ea7b31461013957806311c7db351461015c57806318160ddd14610164575b600080fd5b610123610286565b6040516101309190610b74565b60405180910390f35b61014c610147366004610bde565b610318565b6040519015158152602001610130565b610123610332565b6002545b604051908152602001610130565b61014c610184366004610c08565b6103c0565b60405160128152602001610130565b61014c6101a6366004610bde565b6103e4565b6101be6101b9366004610bde565b610406565b005b6101686101ce366004610c44565b6001600160a01b031660009081526020819052604090205490565b6101be61041c565b6005546040516001600160a01b039091168152602001610130565b610123610430565b6101be610222366004610bde565b61043f565b61014c610235366004610bde565b610451565b61014c610248366004610bde565b6104d1565b6101be61025b366004610c7c565b6104df565b61016861026e366004610d2d565b6104f3565b6101be610281366004610c44565b61051e565b60606003805461029590610d60565b80601f01602080910402602001604051908101604052809291908181526020018280546102c190610d60565b801561030e5780601f106102e35761010080835404028352916020019161030e565b820191906000526020600020905b8154815290600101906020018083116102f157829003601f168201915b5050505050905090565b600033610326818585610597565b60019150505b92915050565b6006805461033f90610d60565b80601f016020809104026020016040519081016040528092919081815260200182805461036b90610d60565b80156103b85780601f1061038d576101008083540402835291602001916103b8565b820191906000526020600020905b81548152906001019060200180831161039b57829003601f168201915b505050505081565b6000336103ce8582856106bc565b6103d9858585610736565b506001949350505050565b6000336103268185856103f783836104f3565b6104019190610d9a565b610597565b61040e6108da565b6104188282610934565b5050565b6104246108da565b61042e60006109f3565b565b60606004805461029590610d60565b6104476108da565b6104188282610a45565b6000338161045f82866104f3565b9050838110156104c45760405162461bcd60e51b815260206004820152602560248201527f45524332303a2064656372656173656420616c6c6f77616e63652062656c6f77604482015264207a65726f60d81b60648201526084015b60405180910390fd5b6103d98286868403610597565b600033610326818585610736565b6104e76108da565b60066104188282610e09565b6001600160a01b03918216600090815260016020908152604080832093909416825291909152205490565b6105266108da565b6001600160a01b03811661058b5760405162461bcd60e51b815260206004820152602660248201527f4f776e61626c653a206e6577206f776e657220697320746865207a65726f206160448201526564647265737360d01b60648201526084016104bb565b610594816109f3565b50565b6001600160a01b0383166105f95760405162461bcd60e51b8152602060048201526024808201527f45524332303a20617070726f76652066726f6d20746865207a65726f206164646044820152637265737360e01b60648201526084016104bb565b6001600160a01b03821661065a5760405162461bcd60e51b815260206004820152602260248201527f45524332303a20617070726f766520746f20746865207a65726f206164647265604482015261737360f01b60648201526084016104bb565b6001600160a01b0383811660008181526001602090815260408083209487168084529482529182902085905590518481527f8c5be1e5ebec7d5bd14f71427d1e84f3dd0314c0f7b2291e5b200ac8c7c3b92591015b60405180910390a3505050565b60006106c884846104f3565b9050600019811461073057818110156107235760405162461bcd60e51b815260206004820152601d60248201527f45524332303a20696e73756666696369656e7420616c6c6f77616e636500000060448201526064016104bb565b6107308484848403610597565b50505050565b6001600160a01b03831661079a5760405162461bcd60e51b815260206004820152602560248201527f45524332303a207472616e736665722066726f6d20746865207a65726f206164604482015264647265737360d81b60648201526084016104bb565b6001600160a01b0382166107fc5760405162461bcd60e51b815260206004820152602360248201527f45524332303a207472616e7366657220746f20746865207a65726f206164647260448201526265737360e81b60648201526084016104bb565b6001600160a01b038316600090815260208190526040902054818110156108745760405162461bcd60e51b815260206004820152602660248201527f45524332303a207472616e7366657220616d6f756e7420657863656564732062604482015265616c616e636560d01b60648201526084016104bb565b6001600160a01b03848116600081815260208181526040808320878703905593871680835291849020805487019055925185815290927fddf252ad1be2c89b69c2b068fc378daa952ba7f163c4a11628f55a4df523b3ef910160405180910390a3610730565b6005546001600160a01b0316331461042e5760405162461bcd60e51b815260206004820181905260248201527f4f776e61626c653a2063616c6c6572206973206e6f7420746865206f776e657260448201526064016104bb565b6001600160a01b03821661098a5760405162461bcd60e51b815260206004820152601f60248201527f45524332303a206d696e7420746f20746865207a65726f20616464726573730060448201526064016104bb565b806002600082825461099c9190610d9a565b90915550506001600160a01b038216600081815260208181526040808320805486019055518481527fddf252ad1be2c89b69c2b068fc378daa952ba7f163c4a11628f55a4df523b3ef910160405180910390a35050565b600580546001600160a01b038381166001600160a01b0319831681179093556040519116919082907f8be0079c531659141344cd1fd0a4f28419497f9722a3daafe3b4186f6b6457e090600090a35050565b6001600160a01b038216610aa55760405162461bcd60e51b815260206004820152602160248201527f45524332303a206275726e2066726f6d20746865207a65726f206164647265736044820152607360f81b60648201526084016104bb565b6001600160a01b03821660009081526020819052604090205481811015610b195760405162461bcd60e51b815260206004820152602260248201527f45524332303a206275726e20616d6f756e7420657863656564732062616c616e604482015261636560f01b60648201526084016104bb565b6001600160a01b0383166000818152602081815260408083208686039055600280548790039055518581529192917fddf252ad1be2c89b69c2b068fc378daa952ba7f163c4a11628f55a4df523b3ef91016106af565b505050565b600060208083528351808285015260005b81811015610ba157858101830151858201604001528201610b85565b506000604082860101526040601f19601f8301168501019250505092915050565b80356001600160a01b0381168114610bd957600080fd5b919050565b60008060408385031215610bf157600080fd5b610bfa83610bc2565b946020939093013593505050565b600080600060608486031215610c1d57600080fd5b610c2684610bc2565b9250610c3460208501610bc2565b9150604084013590509250925092565b600060208284031215610c5657600080fd5b610c5f82610bc2565b9392505050565b634e487b7160e01b600052604160045260246000fd5b600060208284031215610c8e57600080fd5b813567ffffffffffffffff80821115610ca657600080fd5b818401915084601f830112610cba57600080fd5b813581811115610ccc57610ccc610c66565b604051601f8201601f19908116603f01168101908382118183101715610cf457610cf4610c66565b81604052828152876020848701011115610d0d57600080fd5b826020860160208301376000928101602001929092525095945050505050565b60008060408385031215610d4057600080fd5b610d4983610bc2565b9150610d5760208401610bc2565b90509250929050565b600181811c90821680610d7457607f821691505b602082108103610d9457634e487b7160e01b600052602260045260246000fd5b50919050565b8082018082111561032c57634e487b7160e01b600052601160045260246000fd5b601f821115610b6f57600081815260208120601f850160051c81016020861015610de25750805b601f850160051c820191505b81811015610e0157828155600101610dee565b505050505050565b815167ffffffffffffffff811115610e2357610e23610c66565b610e3781610e318454610d60565b84610dbb565b602080601f831160018114610e6c5760008415610e545750858301515b600019600386901b1c1916600185901b178555610e01565b600085815260208120601f198616915b82811015610e9b57888601518255948401946001909101908401610e7c565b5085821015610eb95787850151600019600388901b60f8161c191681555b5050505050600190811b0190555056fea2646970667358221220eca16b6667d4232168e34bcf5416bdefa9c11b3e20c33f25b3385cc4c93e98d264736f6c63430008140033",
  "linkReferences": {},
  "deployedLinkReferences": {}
}